{
  "contractName": "Voting",
  "abi": [
    {
      "inputs": [
        {
          "internalType": "string[]",
          "name": "_candidateNames",
          "type": "string[]"
        }
      ],
      "stateMutability": "nonpayable",
      "type": "constructor"
    },
    {
      "inputs": [],
      "name": "admin",
      "outputs": [
        {
          "internalType": "address",
          "name": "",
          "type": "address"
        }
      ],
      "stateMutability": "view",
      "type": "function",
      "constant": true
    },
    {
      "inputs": [
        {
          "internalType": "address",
          "name": "",
          "type": "address"
        }
      ],
      "name": "hasVoted",
      "outputs": [
        {
          "internalType": "bool",
          "name": "",
          "type": "bool"
        }
      ],
      "stateMutability": "view",
      "type": "function",
      "constant": true
    },
    {
      "inputs": [
        {
          "internalType": "uint256",
          "name": "candidateIndex",
          "type": "uint256"
        }
      ],
      "name": "vote",
      "outputs": [],
      "stateMutability": "nonpayable",
      "type": "function"
    },
    {
      "inputs": [],
      "name": "getCandidates",
      "outputs": [
        {
          "components": [
            {
              "internalType": "string",
              "name": "name",
              "type": "string"
            },
            {
              "internalType": "uint256",
              "name": "voteCount",
              "type": "uint256"
            }
          ],
          "internalType": "struct Voting.Candidate[]",
          "name": "",
          "type": "tuple[]"
        }
      ],
      "stateMutability": "view",
      "type": "function",
      "constant": true
    },
    {
      "inputs": [],
      "name": "getCandidateCount",
      "outputs": [
        {
          "internalType": "uint256",
          "name": "",
          "type": "uint256"
        }
      ],
      "stateMutability": "view",
      "type": "function",
      "constant": true
    },
    {
      "inputs": [
        {
          "internalType": "uint256",
          "name": "index",
          "type": "uint256"
        }
      ],
      "name": "getCandidate",
      "outputs": [
        {
          "internalType": "string",
          "name": "name",
          "type": "string"
        },
        {
          "internalType": "uint256",
          "name": "voteCount",
          "type": "uint256"
        }
      ],
      "stateMutability": "view",
      "type": "function",
      "constant": true
    }
  ],
  "bytecode": "0x608060405234801562000010575f80fd5b50604051620012b1380380620012b1833981810160405281019062000036919062000398565b335f806101000a81548173ffffffffffffffffffffffffffffffffffffffff021916908373ffffffffffffffffffffffffffffffffffffffff1602179055505f5b8151811015620001135760016040518060400160405280848481518110620000a457620000a3620003e7565b5b602002602001015181526020015f815250908060018154018082558091505060019003905f5260205f2090600202015f909190919091505f820151815f019081620000f091906200064b565b5060208201518160010155505080806200010a906200075c565b91505062000077565b5050620007a8565b5f604051905090565b5f80fd5b5f80fd5b5f80fd5b5f601f19601f8301169050919050565b7f4e487b71000000000000000000000000000000000000000000000000000000005f52604160045260245ffd5b620001788262000130565b810181811067ffffffffffffffff821117156200019a576200019962000140565b5b80604052505050565b5f620001ae6200011b565b9050620001bc82826200016d565b919050565b5f67ffffffffffffffff821115620001de57620001dd62000140565b5b602082029050602081019050919050565b5f80fd5b5f80fd5b5f67ffffffffffffffff82111562000214576200021362000140565b5b6200021f8262000130565b9050602081019050919050565b5f5b838110156200024b5780820151818401526020810190506200022e565b5f8484015250505050565b5f6200026c6200026684620001f7565b620001a3565b9050828152602081018484840111156200028b576200028a620001f3565b5b620002988482856200022c565b509392505050565b5f82601f830112620002b757620002b66200012c565b5b8151620002c984826020860162000256565b91505092915050565b5f620002e8620002e284620001c1565b620001a3565b905080838252602082019050602084028301858111156200030e576200030d620001ef565b5b835b818110156200035c57805167ffffffffffffffff8111156200033757620003366200012c565b5b808601620003468982620002a0565b8552602085019450505060208101905062000310565b5050509392505050565b5f82601f8301126200037d576200037c6200012c565b5b81516200038f848260208601620002d2565b91505092915050565b5f60208284031215620003b057620003af62000124565b5b5f82015167ffffffffffffffff811115620003d057620003cf62000128565b5b620003de8482850162000366565b91505092915050565b7f4e487b71000000000000000000000000000000000000000000000000000000005f52603260045260245ffd5b5f81519050919050565b7f4e487b71000000000000000000000000000000000000000000000000000000005f52602260045260245ffd5b5f60028204905060018216806200046357607f821691505b6020821081036200047957620004786200041e565b5b50919050565b5f819050815f5260205f209050919050565b5f6020601f8301049050919050565b5f82821b905092915050565b5f60088302620004dd7fffffffffffffffffffffffffffffffffffffffffffffffffffffffffffffffff82620004a0565b620004e98683620004a0565b95508019841693508086168417925050509392505050565b5f819050919050565b5f819050919050565b5f620005336200052d620005278462000501565b6200050a565b62000501565b9050919050565b5f819050919050565b6200054e8362000513565b620005666200055d826200053a565b848454620004ac565b825550505050565b5f90565b6200057c6200056e565b6200058981848462000543565b505050565b5b81811015620005b057620005a45f8262000572565b6001810190506200058f565b5050565b601f821115620005ff57620005c9816200047f565b620005d48462000491565b81016020851015620005e4578190505b620005fc620005f38562000491565b8301826200058e565b50505b505050565b5f82821c905092915050565b5f620006215f198460080262000604565b1980831691505092915050565b5f6200063b838362000610565b9150826002028217905092915050565b620006568262000414565b67ffffffffffffffff81111562000672576200067162000140565b5b6200067e82546200044b565b6200068b828285620005b4565b5f60209050601f831160018114620006c1575f8415620006ac578287015190505b620006b885826200062e565b86555062000727565b601f198416620006d1866200047f565b5f5b82811015620006fa57848901518255600182019150602085019450602081019050620006d3565b868310156200071a578489015162000716601f89168262000610565b8355505b6001600288020188555050505b505050505050565b7f4e487b71000000000000000000000000000000000000000000000000000000005f52601160045260245ffd5b5f620007688262000501565b91507fffffffffffffffffffffffffffffffffffffffffffffffffffffffffffffffff82036200079d576200079c6200072f565b5b600182019050919050565b610afb80620007b65f395ff3fe608060405234801561000f575f80fd5b5060043610610060575f3560e01c80630121b93f1461006457806306a49fce1461008057806309eef43e1461009e57806330a56347146100ce57806335b8e820146100ec578063f851a4401461011d575b5f80fd5b61007e60048036038101906100799190610538565b61013b565b005b61008861029c565b60405161009591906106f1565b60405180910390f35b6100b860048036038101906100b3919061076b565b610391565b6040516100c591906107b0565b60405180910390f35b6100d66103ae565b6040516100e391906107d8565b60405180910390f35b61010660048036038101906101019190610538565b6103ba565b604051610114929190610839565b60405180910390f35b6101256104de565b6040516101329190610876565b60405180910390f35b60025f3373ffffffffffffffffffffffffffffffffffffffff1673ffffffffffffffffffffffffffffffffffffffff1681526020019081526020015f205f9054906101000a900460ff16156101c5576040517f08c379a00000000000000000000000000000000000000000000000000000000081526004016101bc906108d9565b60405180910390fd5b600180549050811061020c576040517f08c379a000000000000000000000000000000000000000000000000000000000815260040161020390610941565b60405180910390fd5b600160025f3373ffffffffffffffffffffffffffffffffffffffff1673ffffffffffffffffffffffffffffffffffffffff1681526020019081526020015f205f6101000a81548160ff021916908315150217905550600181815481106102755761027461095f565b5b905f5260205f2090600202016001015f815480929190610294906109b9565b919050555050565b60606001805480602002602001604051908101604052809291908181526020015f905b82821015610388578382905f5260205f2090600202016040518060400160405290815f820180546102ef90610a2d565b80601f016020809104026020016040519081016040528092919081815260200182805461031b90610a2d565b80156103665780601f1061033d57610100808354040283529160200191610366565b820191905f5260205f20905b81548152906001019060200180831161034957829003601f168201915b50505050508152602001600182015481525050815260200190600101906102bf565b50505050905090565b6002602052805f5260405f205f915054906101000a900460ff1681565b5f600180549050905090565b60605f6001805490508310610404576040517f08c379a00000000000000000000000000000000000000000000000000000000081526004016103fb90610aa7565b60405180910390fd5b5f600184815481106104195761041861095f565b5b905f5260205f2090600202016040518060400160405290815f8201805461043f90610a2d565b80601f016020809104026020016040519081016040528092919081815260200182805461046b90610a2d565b80156104b65780601f1061048d576101008083540402835291602001916104b6565b820191905f5260205f20905b81548152906001019060200180831161049957829003601f168201915b505050505081526020016001820154815250509050805f015181602001519250925050915091565b5f8054906101000a900473ffffffffffffffffffffffffffffffffffffffff1681565b5f80fd5b5f819050919050565b61051781610505565b8114610521575f80fd5b50565b5f813590506105328161050e565b92915050565b5f6020828403121561054d5761054c610501565b5b5f61055a84828501610524565b91505092915050565b5f81519050919050565b5f82825260208201905092915050565b5f819050602082019050919050565b5f81519050919050565b5f82825260208201905092915050565b5f5b838110156105c35780820151818401526020810190506105a8565b5f8484015250505050565b5f601f19601f8301169050919050565b5f6105e88261058c565b6105f28185610596565b93506106028185602086016105a6565b61060b816105ce565b840191505092915050565b61061f81610505565b82525050565b5f604083015f8301518482035f86015261063f82826105de565b91505060208301516106546020860182610616565b508091505092915050565b5f61066a8383610625565b905092915050565b5f602082019050919050565b5f61068882610563565b610692818561056d565b9350836020820285016106a48561057d565b805f5b858110156106df57848403895281516106c0858261065f565b94506106cb83610672565b925060208a019950506001810190506106a7565b50829750879550505050505092915050565b5f6020820190508181035f830152610709818461067e565b905092915050565b5f73ffffffffffffffffffffffffffffffffffffffff82169050919050565b5f61073a82610711565b9050919050565b61074a81610730565b8114610754575f80fd5b50565b5f8135905061076581610741565b92915050565b5f602082840312156107805761077f610501565b5b5f61078d84828501610757565b91505092915050565b5f8115159050919050565b6107aa81610796565b82525050565b5f6020820190506107c35f8301846107a1565b92915050565b6107d281610505565b82525050565b5f6020820190506107eb5f8301846107c9565b92915050565b5f82825260208201905092915050565b5f61080b8261058c565b61081581856107f1565b93506108258185602086016105a6565b61082e816105ce565b840191505092915050565b5f6040820190508181035f8301526108518185610801565b905061086060208301846107c9565b9392505050565b61087081610730565b82525050565b5f6020820190506108895f830184610867565b92915050565b7f596f75206861766520616c726561647920766f746564000000000000000000005f82015250565b5f6108c36016836107f1565b91506108ce8261088f565b602082019050919050565b5f6020820190508181035f8301526108f0816108b7565b9050919050565b7f496e76616c69642063616e6469646174650000000000000000000000000000005f82015250565b5f61092b6011836107f1565b9150610936826108f7565b602082019050919050565b5f6020820190508181035f8301526109588161091f565b9050919050565b7f4e487b71000000000000000000000000000000000000000000000000000000005f52603260045260245ffd5b7f4e487b71000000000000000000000000000000000000000000000000000000005f52601160045260245ffd5b5f6109c382610505565b91507fffffffffffffffffffffffffffffffffffffffffffffffffffffffffffffffff82036109f5576109f461098c565b5b600182019050919050565b7f4e487b71000000000000000000000000000000000000000000000000000000005f52602260045260245ffd5b5f6002820490506001821680610a4457607f821691505b602082108103610a5757610a56610a00565b5b50919050565b7f496e76616c696420696e646578000000000000000000000000000000000000005f82015250565b5f610a91600d836107f1565b9150610a9c82610a5d565b602082019050919050565b5f6020820190508181035f830152610abe81610a85565b905091905056fea2646970667358221220843125332953207f44ecfd12e45d3646beb0e9123ab1286b843329ad64ad915064736f6c63430008150033",
  "immutableReferences": {},
  "source": "// SPDX-License-Identifier: MIT\npragma solidity ^0.8.0;\n\ncontract Voting {\n    struct Candidate {\n        string name;\n        uint256 voteCount;\n    }\n\n    address public admin;\n    Candidate[] private candidateList; // Changed to private, expose via getter\n    mapping(address => bool) public hasVoted;\n\n    constructor(string[] memory _candidateNames) {\n        admin = msg.sender;\n        for (uint256 i = 0; i < _candidateNames.length; i++) {\n            candidateList.push(Candidate({ name: _candidateNames[i], voteCount: 0 }));\n        }\n    }\n\n    function vote(uint256 candidateIndex) public {\n        require(!hasVoted[msg.sender], \"You have already voted\");\n        require(candidateIndex < candidateList.length, \"Invalid candidate\");\n\n        hasVoted[msg.sender] = true;\n        candidateList[candidateIndex].voteCount++;\n    }\n\n    /// @notice Returns all candidates with their names and vote counts\n    function getCandidates() public view returns (Candidate[] memory) {\n        return candidateList;\n    }\n\n    /// @notice Returns total number of candidates (optional utility)\n    function getCandidateCount() public view returns (uint256) {\n        return candidateList.length;\n    }\n\n    /// @notice Returns a single candidate's data (optional)\n    function getCandidate(uint256 index) public view returns (string memory name, uint256 voteCount) {\n        require(index < candidateList.length, \"Invalid index\");\n        Candidate memory c = candidateList[index];\n        return (c.name, c.voteCount);\n    }\n}\n",
  "sourcePath": "/Users/anthonycarvalho/votting-dapp/contracts/Voting.sol",
  "compiler": {
    "name": "solc",
    "version": "0.8.21+commit.d9974bed.Emscripten.clang"
  },
  "schemaVersion": "3.4.16",
  "updatedAt": "2025-08-25T10:08:07.416Z",
  "networkType": "ethereum",
  "devdoc": {
    "kind": "dev",
    "methods": {},
    "version": 1
  },
  "userdoc": {
    "kind": "user",
    "methods": {
      "getCandidate(uint256)": {
        "notice": "Returns a single candidate's data (optional)"
      },
      "getCandidateCount()": {
        "notice": "Returns total number of candidates (optional utility)"
      },
      "getCandidates()": {
        "notice": "Returns all candidates with their names and vote counts"
      }
    },
    "version": 1
  }
}